:100000000C942A000C9447000C9447000C94470071
:100010000C9447000C9447000C9447000C94470044
:100020000C9447000C9447000C9447000C94DD029C
:100030000C9447000C94FF020C9447000C9447006A
:100040000C9447000C9447000C9447000C94470014
:100050000C94470011241FBECFE5D8E0DEBFCDBF12
:1000600010E0A0E6B0E0E0E6F7E002C005900D92F7
:10007000AC36B107D9F720E0ACE6B0E001C01D9284
:10008000A438B207E1F70E940E030C94AE030C945F
:100090000000672B09F09FC0009711F4D8980895CD
:1000A0008130910511F4D99808958230910511F4A9
:1000B000DA9808958330910511F4DB98089584301F
:1000C000910511F4DC9808958530910511F4DD98BF
:1000D00008958630910511F4DE98089587309105D2
:1000E00011F4DF9808958A30910511F4C0980895AD
:1000F0008B30910511F4C19808958C30910511F45D
:10010000C29808958D30910511F4C39808958E30EA
:10011000910511F4C49808958F30910511F4C59894
:1001200008958031910511F4C698089581319105A3
:1001300011F4C79808958431910511F4A898089591
:100140008531910511F4A99808958631910511F42E
:10015000AA9808958731910511F4AB9808958831D4
:10016000910511F4AC9808958931910511F4AD9879
:1001700008958A31910511F4AE9808958B31910557
:1001800011F4AF9808958E31910511F49098089567
:100190008F31910511F4919808958032910511F4F1
:1001A000929808958132910511F4939808958232BE
:1001B000910511F4949808958332910511F495985E
:1001C00008958432910511F496980895859709F061
:1001D0009FC097980895009711F4D89A0895813098
:1001E000910511F4D99A08958230910511F4DA9AA3
:1001F00008958330910511F4DB9A089584309105B8
:1002000011F4DC9A08958530910511F4DD9A089572
:100210008630910511F4DE9A08958730910511F426
:10022000DF9A08958A30910511F4C09A08958B30B1
:10023000910511F4C19A08958C30910511F4C29A78
:1002400008958D30910511F4C39A08958E3091056B
:1002500011F4C49A08958F30910511F4C59A089548
:100260008031910511F4C69A08958131910511F4F8
:10027000C79A08958431910511F4A89A089585319B
:10028000910511F4A99A08958631910511F4AA9A5D
:1002900008958731910511F4AB9A0895883191053D
:1002A00011F4AC9A08958931910511F4AD9A08952D
:1002B0008A31910511F4AE9A08958B31910511F4AC
:1002C000AF9A08958E31910511F4909A08958F3167
:1002D000910511F4919A08958032910511F4929A42
:1002E00008958132910511F4939A0895823291050F
:1002F00011F4949A08958332910511F4959A089512
:100300008432910511F4969A0895859709F4979A85
:100310000895CF93C82F80FF07C061E070E08AE0A6
:1003200090E00E94490006C060E070E08AE090E042
:100330000E944900C1FF07C061E070E08BE090E0DF
:100340000E94490006C060E070E08BE090E00E94EF
:100350004900C2FF07C061E070E08CE090E00E94BD
:10036000490006C060E070E08CE090E00E94490027
:10037000C3FF07C061E070E08DE090E00E9449009B
:1003800006C060E070E08DE090E00E944900C4FF8C
:1003900007C061E070E08EE090E00E94490006C076
:1003A00060E070E08EE090E00E944900C5FF07C069
:1003B00061E070E08FE090E00E94490006C060E0DC
:1003C00070E08FE090E00E944900C6FF07C061E046
:1003D00070E080E190E00E94490006C060E070E0BB
:1003E00080E190E00E944900CC233CF461E070E0A1
:1003F00081E190E00E94490006C060E070E081E188
:1004000090E00E944900CF910895CF93C82F60E0FB
:1004100070E080E090E00E9449008C2F0E948901EA
:1004200061E070E081E090E00E9449008FEC97E08D
:100430000197F1F700C0000060E070E081E090E01B
:100440000E9449008FEC97E00197F1F700C000008F
:10045000CF91089581E00E940502089560E070E068
:1004600080E090E00E94490060E070E081E090E070
:100470000E9449008FE39CE90197F1F700C000005A
:1004800080E30E9405028FE097E20197F1F700C038
:10049000000080E30E9405028FEC97E00197F1F7DE
:1004A00000C0000080E30E9405028FE19EE40197F6
:1004B000F1F700C0000088E30E9405028CE00E9472
:1004C000050281E00E94050286E00E94050208956F
:1004D000CF93C82F61E070E080E090E00E94490077
:1004E0008C2F0E94890161E070E081E090E00E9421
:1004F00049008FEC97E00197F1F700C0000060E041
:1005000070E081E090E00E9449008FEC97E0019755
:10051000F1F700C00000CF910895CF93DF93EC0175
:100520008881882331F021960E9468028991811187
:10053000FBCFDF91CF91089580E98AB986E880BD2D
:1005400083E389B908958D9A80E29EE497BD86BDC4
:1005500082E88FBD8AE18EBD08958617970774F4EF
:100560009BBD8ABDEFE0F7E23197F1F700C00000D4
:10057000840F951F681779079CF708959BBD8ABD66
:10058000EFE0F7E23197F1F700C00000841B950B14
:10059000861797079CF7089581B3806C81BB979A63
:1005A0009698089585E083BF89B7816089BF789464
:1005B00010926F0010926E0008951F920F920FB666
:1005C0000F9211248F939F9380916E0090916F00F2
:1005D00001968E31910528F490936F0080936E0000
:1005E00007C010926F0010926E0081E080936C0043
:1005F0009F918F910F900FBE0F901F9018951F9293
:100600000F920FB60F9211248F9381E080936D00AB
:100610008F910F900FBE0F901F901895CF93DF937F
:1006200000D000D0CDB7DEB70E94CC020E949C0261
:100630000E94A3028FEF8ABB87BB0E942E02789490
:1006400088EE93E09BBD8ABD1AE080916D008823FF
:10065000E1F310926D000E942A0280E80E940502D8
:1006600081E690E00E948D02109360000E94D20209
:10067000809160008823E9F0412FBE016F5F7F4FBA
:1006800090E00E94790388EC0E940502CE01019659
:100690000E948D0210926C0080916C008823E1F31F
:1006A0000E942A0280916000815080936000811135
:1006B000E3CF0E942A02C798C69A41E050E060ED5D
:1006C00077E088EE93E00E94AD022FEF81E19AE798
:1006D000215080409040E1F700C0000041E050E030
:1006E00068EE73E080ED97E00E94AD02C79AC6986D
:1006F000ACCFBB274A3031F4992322F4BDE2909568
:1007000081959F4F0C948503BB27FB015527AA2792
:10071000880F991FAA1FA41710F0A41B839550518E
:10072000B9F7A05DAA3308F0A95DA193009779F706
:10073000B111B1931192CB010C949E03DC01FC0129
:10074000672F71917723E1F7329704C07C916D9305
:1007500070836291AE17BF07C8F30895F894FFCF76
:0C0760000A5468616E6B20796F75000010
:00000001FF
