:100000000C942A000C9447000C9447000C94470071
:100010000C9447000C9447000C9447000C94470044
:100020000C9447000C9447000C9447000C94DE029B
:100030000C9447000C94F4020C9447000C94470075
:100040000C9447000C9447000C9447000C94470014
:100050000C94470011241FBECFE5D8E0DEBFCDBF12
:1000600010E0A0E6B0E0EAEFF8E002C005900D92E3
:10007000A83BB107D9F720E0A8EBB0E001C01D9282
:10008000A03DB207E1F70E943D030C947B040C9461
:100090000000672B09F09FC0009711F4D8980895CD
:1000A0008130910511F4D99808958230910511F4A9
:1000B000DA9808958330910511F4DB98089584301F
:1000C000910511F4DC9808958530910511F4DD98BF
:1000D00008958630910511F4DE98089587309105D2
:1000E00011F4DF9808958A30910511F4C0980895AD
:1000F0008B30910511F4C19808958C30910511F45D
:10010000C29808958D30910511F4C39808958E30EA
:10011000910511F4C49808958F30910511F4C59894
:1001200008958031910511F4C698089581319105A3
:1001300011F4C79808958431910511F4A898089591
:100140008531910511F4A99808958631910511F42E
:10015000AA9808958731910511F4AB9808958831D4
:10016000910511F4AC9808958931910511F4AD9879
:1001700008958A31910511F4AE9808958B31910557
:1001800011F4AF9808958E31910511F49098089567
:100190008F31910511F4919808958032910511F4F1
:1001A000929808958132910511F4939808958232BE
:1001B000910511F4949808958332910511F495985E
:1001C00008958432910511F496980895859709F061
:1001D0009FC097980895009711F4D89A0895813098
:1001E000910511F4D99A08958230910511F4DA9AA3
:1001F00008958330910511F4DB9A089584309105B8
:1002000011F4DC9A08958530910511F4DD9A089572
:100210008630910511F4DE9A08958730910511F426
:10022000DF9A08958A30910511F4C09A08958B30B1
:10023000910511F4C19A08958C30910511F4C29A78
:1002400008958D30910511F4C39A08958E3091056B
:1002500011F4C49A08958F30910511F4C59A089548
:100260008031910511F4C69A08958131910511F4F8
:10027000C79A08958431910511F4A89A089585319B
:10028000910511F4A99A08958631910511F4AA9A5D
:1002900008958731910511F4AB9A0895883191053D
:1002A00011F4AC9A08958931910511F4AD9A08952D
:1002B0008A31910511F4AE9A08958B31910511F4AC
:1002C000AF9A08958E31910511F4909A08958F3167
:1002D000910511F4919A08958032910511F4929A42
:1002E00008958132910511F4939A0895823291050F
:1002F00011F4949A08958332910511F4959A089512
:100300008432910511F4969A0895859709F4979A85
:100310000895CF93C82F80FF07C061E070E08AE0A6
:1003200090E00E94490006C060E070E08AE090E042
:100330000E944900C1FF07C061E070E08BE090E0DF
:100340000E94490006C060E070E08BE090E00E94EF
:100350004900C2FF07C061E070E08CE090E00E94BD
:10036000490006C060E070E08CE090E00E94490027
:10037000C3FF07C061E070E08DE090E00E9449009B
:1003800006C060E070E08DE090E00E944900C4FF8C
:1003900007C061E070E08EE090E00E94490006C076
:1003A00060E070E08EE090E00E944900C5FF07C069
:1003B00061E070E08FE090E00E94490006C060E0DC
:1003C00070E08FE090E00E944900C6FF07C061E046
:1003D00070E080E190E00E94490006C060E070E0BB
:1003E00080E190E00E944900CC233CF461E070E0A1
:1003F00081E190E00E94490006C060E070E081E188
:1004000090E00E944900CF910895CF93C82F60E0FB
:1004100070E080E090E00E9449008C2F0E948901EA
:1004200061E070E081E090E00E9449008FEC97E08D
:100430000197F1F700C0000060E070E081E090E01B
:100440000E9449008FEC97E00197F1F700C000008F
:10045000CF91089581E00E940502089560E070E068
:1004600080E090E00E94490060E070E081E090E070
:100470000E9449008FE39CE90197F1F700C000005A
:1004800080E30E9405028FE097E20197F1F700C038
:10049000000080E30E9405028FEC97E00197F1F7DE
:1004A00000C0000080E30E9405028FE19EE40197F6
:1004B000F1F700C0000088E30E9405028CE00E9472
:1004C000050281E00E94050286E00E94050208956F
:1004D000CF93C82F61E070E080E090E00E94490077
:1004E0008C2F0E94890161E070E081E090E00E9421
:1004F00049008FEC97E00197F1F700C0000060E041
:1005000070E081E090E00E9449008FEC97E0019755
:10051000F1F700C00000CF910895CF93DF93EC0175
:100520008881882331F021960E9468028991811187
:10053000FBCFDF91CF91089580E98AB986E880BD2D
:1005400083E389B908958D9A80E29EE497BD86BDC4
:1005500082E88FBD8AE18EBD08958617970774F4EF
:100560009BBD8ABDEFE1FEE43197F1F700C00000CA
:10057000840F951F681779079CF708959BBD8ABD66
:10058000EFE1FEE43197F1F700C00000841B950B0A
:10059000861797079CF7089581B3806C81BB979A63
:1005A0009698089585E083BF89B7816089BF12BEA0
:1005B00078941092CE001092CF0008951F920F925F
:1005C0000FB60F9211248F938091CE008F5F80938E
:1005D000CE008091CF008F5F8093CF008F910F90DE
:1005E0000FBE0F901F9018951F920F920FB60F928B
:1005F00011242F933F934F935F936F937F938F9328
:100600009F93AF93BF93EF93FF938CB18A30A1F484
:10061000E091B800F0E0E654FF4F10821092B8006D
:1006200061E670E08AEB90E00E943D04892BA1F422
:1006300081E08093B90010C0E091B80091E09E0F76
:100640009093B800F0E0E654FF4F80838091B800AB
:10065000833110F01092B800FF91EF91BF91AF91EC
:100660009F918F917F916F915F914F913F912F91CA
:100670000F900FBE0F901F901895CF93DF93CDB7BB
:10068000DEB7AC970FB6F894DEBF0FBECDBF0E94A9
:10069000CC020E949C020E94A3028BED95E09BBDC0
:1006A0008ABD8FEF8ABB87BB0E942E020E94D202B6
:1006B000789488E2E0E9F0E0DE01159601900D9271
:1006C0008A95E1F7DE011596FD0101900020E9F71A
:1006D0003197EA1BFB0B0F2EFAE07F2EF02D312C09
:1006E000412C512C612C5F01BB248A2C9B2C8091C6
:1006F000B9008823E1F31092B9000E942A02709297
:10070000600080E80E9405028BE690E00E948D0266
:100710002FEF84E39CE0215080409040E1F700C03F
:100720000000C32CD42CE52CF62C212C5AC080912F
:10073000CF0090E0A0E0B0E08C199D09AE09BF09A0
:100740000C97A105B10538F180E80E94050200E090
:1007500010E0E22CF12CC701800F911FB5010E941F
:100760001504E5E0F0E0EC0FFD1FE80FF91F8081B4
:100770000E9468020F5F1F4F0031110561F7C7012A
:100780000196682D792D0E941504282EC090CF0067
:10079000D12CE12CF12C8091CE008F3110F182B759
:1007A0008338F8F08091600081508093600088EC7D
:1007B0000E94050284EB90E00E948D0288EC0E946A
:1007C000050280916000472DBE016F5F7F4F90E072
:1007D0000E944604CE0101960E948D0212BE109224
:1007E000CE00809160008111A2CF0E942A029798CA
:1007F000969A41E050E060ED77E08BED95E00E9445
:10080000AD022FEF81E19AE7215080409040E1F75F
:1008100000C0000041E050E06BED75E080ED97E036
:100820000E94AD02979A969862CF97FB072E16F416
:10083000009407D077FD09D00E94290407FC05D059
:100840003EF4909581959F4F0895709561957F4FE7
:100850000895AA1BBB1B51E107C0AA1FBB1FA61707
:10086000B70710F0A61BB70B881F991F5A95A9F759
:1008700080959095BC01CD010895FB01DC018D911F
:10088000019080190110D9F3990B0895BB274A30C4
:1008900031F4992322F4BDE2909581959F4F0C94F9
:1008A0005204BB27FB015527AA27880F991FAA1FAF
:1008B000A41710F0A41B83955051B9F7A05DAA337B
:1008C00008F0A95DA193009779F7B111B193119246
:1008D000CB010C946B04DC01FC01672F7191772331
:1008E000E1F7329704C07C916D9370836291AE17EB
:0A08F000BF07C8F30895F894FFCF86
:1008FA000A4F70656E2047617465005468616E6BBB
:10090A0020796F7520666F72207061726B696E67ED
:10091A00207769746820757320746F646179210087
:10092A005468616E6B20796F7520666F72207061F2
:10093A00726B696E67207769746820757320746FAB
:08094A006461792120202000E6
:00000001FF
