:100000000C942A000C943F000C945A000C943F006E
:100010000C943F000C943F000C943F000C943F0064
:100020000C943F000C943F000C943F000C943F0054
:100030000C943F000C943F000C943F000C943F0044
:100040000C943F000C943F000C943F000C943F0034
:100050000C943F0011241FBECFE5D8E0DEBFCDBF1A
:1000600010E0A0E6B0E0E6E2F1E002C005900D92FB
:10007000AC36B107D9F70E948B000C9491000C9418
:10008000000010BC83E389B988E08AB986E880BDA6
:1000900008955D9BFECF8CB90895CF93DF93EC015B
:1000A00003C021960E94490088818111FACFDF9117
:1000B000CF9108951F920F920FB60F9211242F9394
:1000C0003F934F935F936F937F938F939F93AF93E0
:1000D000BF93EF93FF9380E690E00E944D00FF9165
:1000E000EF91BF91AF919F918F917F916F915F91B0
:1000F0004F913F912F910F900FBE0F901F90189529
:1001000085B7886085BF85B78B7F85BF8BB78068D3
:100110008BBF789408950E9441000E9480007894DB
:06012000FFCFF894FFCFB1
:0C0126004F70656E20476174650A000090
:00000001FF
