:100000000C942A000C943F000C943F000C943F0089
:100010000C943F000C943F000C943F000C943F0064
:100020000C943F000C943F000C943F000C943F0054
:100030000C943F000C943F000C943F000C943F0044
:100040000C943F000C943F000C943F000C943F0034
:100050000C943F0011241FBECFE5D8E0DEBFCDBF1A
:1000600010E0A0E6B0E0EAE9F5E002C005900D92EC
:10007000A637B107D9F70E9498020C94CB020C94D2
:100080000000672B09F09FC0009711F4D8980895DD
:100090008130910511F4D99808958230910511F4B9
:1000A000DA9808958330910511F4DB98089584302F
:1000B000910511F4DC9808958530910511F4DD98CF
:1000C00008958630910511F4DE98089587309105E2
:1000D00011F4DF9808958A30910511F4C0980895BD
:1000E0008B30910511F4C19808958C30910511F46D
:1000F000C29808958D30910511F4C39808958E30FB
:10010000910511F4C49808958F30910511F4C598A4
:1001100008958031910511F4C698089581319105B3
:1001200011F4C79808958431910511F4A8980895A1
:100130008531910511F4A99808958631910511F43E
:10014000AA9808958731910511F4AB9808958831E4
:10015000910511F4AC9808958931910511F4AD9889
:1001600008958A31910511F4AE9808958B31910567
:1001700011F4AF9808958E31910511F49098089577
:100180008F31910511F4919808958032910511F401
:10019000929808958132910511F4939808958232CE
:1001A000910511F4949808958332910511F495986E
:1001B00008958432910511F496980895859709F071
:1001C0009FC097980895009711F4D89A08958130A8
:1001D000910511F4D99A08958230910511F4DA9AB3
:1001E00008958330910511F4DB9A089584309105C8
:1001F00011F4DC9A08958530910511F4DD9A089583
:100200008630910511F4DE9A08958730910511F436
:10021000DF9A08958A30910511F4C09A08958B30C1
:10022000910511F4C19A08958C30910511F4C29A88
:1002300008958D30910511F4C39A08958E3091057B
:1002400011F4C49A08958F30910511F4C59A089558
:100250008031910511F4C69A08958131910511F408
:10026000C79A08958431910511F4A89A08958531AB
:10027000910511F4A99A08958631910511F4AA9A6D
:1002800008958731910511F4AB9A0895883191054D
:1002900011F4AC9A08958931910511F4AD9A08953D
:1002A0008A31910511F4AE9A08958B31910511F4BC
:1002B000AF9A08958E31910511F4909A08958F3177
:1002C000910511F4919A08958032910511F4929A52
:1002D00008958132910511F4939A0895823291051F
:1002E00011F4949A08958332910511F4959A089522
:1002F0008432910511F4969A0895859709F4979A96
:100300000895CF93C82F80FF07C061E070E08EE1B1
:1003100090E00E94410006C060E070E08EE190E055
:100320000E944100C1FF07C061E070E08FE190E0F2
:100330000E94410006C060E070E08FE190E00E9402
:100340004100C2FF07C061E070E080E290E00E94DF
:10035000410006C060E070E080E290E00E94410051
:10036000C3FF07C061E070E081E290E00E944100BD
:1003700006C060E070E081E290E00E944100C4FFAE
:1003800007C061E070E082E290E00E94410006C098
:1003900060E070E082E290E00E944100C5FF07C08B
:1003A00061E070E083E290E00E94410006C060E0FE
:1003B00070E083E290E00E944100C6FF07C061E068
:1003C00070E084E290E00E94410006C060E070E0CE
:1003D00084E290E00E944100CC233CF461E070E0B4
:1003E00085E290E00E94410006C060E070E085E296
:1003F00090E00E944100CF910895CF93C82F60E014
:1004000070E08AE090E00E9441008C2F0E94810100
:1004100061E070E08BE090E00E9441008FEC97E09B
:100420000197F1F700C0000060E070E08BE090E021
:100430000E9441008FEC97E00197F1F700C00000A7
:10044000CF91089581E00E94FD01089560E070E081
:100450008AE090E00E94410060E070E08BE090E074
:100460000E9441008FE39CE90197F1F700C0000072
:1004700080E30E94FD018FE097E20197F1F700C051
:10048000000080E30E94FD018FEC97E00197F1F7F7
:1004900000C0000080E30E94FD018FE19EE401970F
:1004A000F1F700C0000088E30E94FD018CE00E948B
:1004B000FD0181E00E94FD0186E00E94FD0108959A
:1004C000CF93C82F61E070E08AE090E00E94410085
:1004D0008C2F0E94810161E070E08BE090E00E942F
:1004E00041008FEC97E00197F1F700C0000060E059
:1004F00070E08BE090E00E9441008FEC97E0019764
:10050000F1F700C00000CF910895CF93DF93EC0185
:100510008881882331F021960E946002899181119F
:10052000FBCFDF91CF91089588E10E94FD010895EE
:100530008FEF81BB87BB0E94260205E110E080E8B7
:100540000E94FD0180E690E00E948502C02FD12F1D
:100550009FEF29E688E1915020408040E1F700C0FC
:1005600000000E9494022197209791F79FEF29E6BF
:1005700088E1915020408040E1F700C000000E94D7
:1005800022029FEF20E782E0915020408040E1F777
:0A05900000C00000D4CFF894FFCFA4
:10059A004E455720456D626564646564204C41424E
:0605AA0020323032350062
:00000001FF
