S00F000070726F31305F322E73726563D2
S11300000C942A000C943F000C943F000C943F0085
S11300100C943F000C943F000C943F000C943F0060
S11300200C943F000C943F000C943F000C943F0050
S11300300C943F000C943F000C943F000C943F0040
S11300400C943F000C943F000C943F000C943F0030
S11300500C943F0011241FBECFE5D8E0DEBFCDBF16
S113006010E0A0E6B0E0E8EAF5E002C005900D92E9
S1130070AA38B107D9F70E94A1020C94D2020C94B9
S11300800000672B09F09FC0009711F4D8980895D9
S11300908130910511F4D99808958230910511F4B5
S11300A0DA9808958330910511F4DB98089584302B
S11300B0910511F4DC9808958530910511F4DD98CB
S11300C008958630910511F4DE98089587309105DE
S11300D011F4DF9808958A30910511F4C0980895B9
S11300E08B30910511F4C19808958C30910511F469
S11300F0C29808958D30910511F4C39808958E30F7
S1130100910511F4C49808958F30910511F4C598A0
S113011008958031910511F4C698089581319105AF
S113012011F4C79808958431910511F4A89808959D
S11301308531910511F4A99808958631910511F43A
S1130140AA9808958731910511F4AB9808958831E0
S1130150910511F4AC9808958931910511F4AD9885
S113016008958A31910511F4AE9808958B31910563
S113017011F4AF9808958E31910511F49098089573
S11301808F31910511F4919808958032910511F4FD
S1130190929808958132910511F4939808958232CA
S11301A0910511F4949808958332910511F495986A
S11301B008958432910511F496980895859709F06D
S11301C09FC097980895009711F4D89A08958130A4
S11301D0910511F4D99A08958230910511F4DA9AAF
S11301E008958330910511F4DB9A089584309105C4
S11301F011F4DC9A08958530910511F4DD9A08957F
S11302008630910511F4DE9A08958730910511F432
S1130210DF9A08958A30910511F4C09A08958B30BD
S1130220910511F4C19A08958C30910511F4C29A84
S113023008958D30910511F4C39A08958E30910577
S113024011F4C49A08958F30910511F4C59A089554
S11302508031910511F4C69A08958131910511F404
S1130260C79A08958431910511F4A89A08958531A7
S1130270910511F4A99A08958631910511F4AA9A69
S113028008958731910511F4AB9A08958831910549
S113029011F4AC9A08958931910511F4AD9A089539
S11302A08A31910511F4AE9A08958B31910511F4B8
S11302B0AF9A08958E31910511F4909A08958F3173
S11302C0910511F4919A08958032910511F4929A4E
S11302D008958132910511F4939A0895823291051B
S11302E011F4949A08958332910511F4959A08951E
S11302F08432910511F4969A0895859709F4979A92
S11303000895CF93C82F80FF07C061E070E080E0BC
S113031090E00E94410006C060E070E080E090E060
S11303200E944100C1FF07C061E070E081E090E0FD
S11303300E94410006C060E070E081E090E00E940D
S11303404100C2FF07C061E070E082E090E00E94DB
S1130350410006C060E070E082E090E00E9441004D
S1130360C3FF07C061E070E083E090E00E944100B9
S113037006C060E070E083E090E00E944100C4FFAA
S113038007C061E070E084E090E00E94410006C094
S113039060E070E084E090E00E944100C5FF07C087
S11303A061E070E085E090E00E94410006C060E0FA
S11303B070E085E090E00E944100C6FF07C061E064
S11303C070E086E090E00E94410006C060E070E0CA
S11303D086E090E00E944100CC233CF461E070E0B0
S11303E087E090E00E94410006C060E070E087E092
S11303F090E00E944100CF910895CF93C82F60E010
S113040070E08AE090E00E9441008C2F0E948101FC
S113041061E070E08BE090E00E9441008FEC97E097
S11304200197F1F700C0000060E070E08BE090E01D
S11304300E9441008FEC97E00197F1F700C00000A3
S1130440CF91089581E00E94FD01089560E070E07D
S11304508AE090E00E94410060E070E08BE090E070
S11304600E9441008FE39CE90197F1F700C000006E
S113047080E30E94FD018FE097E20197F1F700C04D
S1130480000080E30E94FD018FEC97E00197F1F7F3
S113049000C0000080E30E94FD018FE19EE401970B
S11304A0F1F700C0000088E30E94FD018CE00E9487
S11304B0FD0181E00E94FD0186E00E94FD01089596
S11304C0CF93C82F61E070E08AE090E00E94410081
S11304D08C2F0E94810161E070E08BE090E00E942B
S11304E041008FEC97E00197F1F700C0000060E055
S11304F070E08BE090E00E9441008FEC97E0019760
S1130500F1F700C00000CF910895CF93DF93EC0181
S11305108881882331F021960E946002899181119B
S1130520FBCFDF91CF91089586E880BD1BB883E3AC
S113053089B910BC88E18AB908955F9BFECF8CB15C
S113054008958FEF8ABB87BB0E9426020E94940203
S11305500E949D02C82F80E80E94FD01CD3439F429
S11305600E94220280E690E00E94850211C0C134FC
S113057039F40E9422028DE690E00E94850208C0B0
S1130580C53431F40E9422028CE790E00E94850277
S11305902FEF89E698E1215080409040E1F700C0B8
S10B05A00000D6CFF894FFCF50
S11305A8476F6F64204D6F726E696E6700476F6F97
S11305B8642041667465726E6F6F6E00476F6F6476
S10D05C8204576656E696E67000039
S9030000FC
