:100000000C942A000C943C000C943E000C943C0090
:100010000C943C000C943C000C943C000C943C0070
:100020000C943C000C943C000C943C000C943C0060
:100030000C943C000C943C000C943C000C943C0050
:100040000C943C000C943C000C943C000C943C0040
:100050000C943C0011241FBECFE5D8E0DEBFCDBF1D
:1000600020E0A0E6B0E001C01D92A136B207E1F7A2
:100070000E9476000C94C4000C9400001F920F9212
:100080000FB60F9211248F9381E0809360008F91BF
:100090000F900FBE0F901F9018958D9A82E88FBD1C
:1000A0008AE18EBD80E29EE497BD86BD08958617E5
:1000B000970774F49BBD8ABDEFE0F7E23197F1F743
:1000C00000C00000840F951F681779079CF70895FA
:1000D0009BBD8ABDEFE0F7E23197F1F700C0000069
:1000E000841B950B861797079CF7089588EE93E07D
:1000F0009BBD8ABD0E944D00939A80E88BBF88E02B
:1001000085BF7894809160008823E1F310926000AD
:1001100041E050E060ED77E088EE93E00E94570008
:100120002FEF83E294EF215080409040E1F700C030
:10013000000041E050E064E176E080ED97E00E944D
:1001400057002FEF84E39CE0215080409040E1F77E
:1001500000C0000041E050E066EC74E084E196E00D
:100160000E9457002FEF84E39CE021508040904094
:10017000E1F700C0000041E050E068EE73E086EC7B
:0C01800094E00E945700BECFF894FFCF1F
:00000001FF
