S00F000070726F31315F322E73726563D1
S11300000C942A000C9434000C9434000C943400A6
S11300100C9434000C9434000C9434000C9434008C
S11300200C9434000C9434000C9434000C9434007C
S11300300C9434000C943F000C9434000C94340061
S11300400C9434000C9434000C9434000C9434005C
S11300500C94340011241FBECFE5D8E0DEBFCDBF21
S11300600E944D000C9477000C9400001BB888E1AA
S11300708AB986E880BD83E389B910BC08951F92CC
S11300800F920FB60F9211248F938CB188BB8F916E
S11300900F900FBE0F901F9018950E943600789411
S11300A08FEF87BB84BB81E014C085BB2FEF39E69B
S11300B098E1215030409040E1F700C0000015BAAB
S11300C02FEF39E698E1215030409040E1F700C02D
S11300D000005F9BEACF9CB198BB2FEF39E698E113
S11300E0215030409040E1F700C00000F2CFF89476
S10500F0FFCF3C
S9030000FC
