S00D000070726F31322E7372656363
S11300000C942A000C947F000C9493000C943C00F4
S11300100C943C000C943C000C943C000C943C006C
S11300200C943C000C943C000C943C000C944B004D
S11300300C943C000C943C000C943C000C943C004C
S11300400C943C000C943C000C943C000C943C003C
S11300500C943C0011241FBECFE5D8E0DEBFCDBF19
S113006020E0A0E6B0E001C01D92A236B207E1F79D
S11300700E94A8000C9425010C94000083B78360AF
S113008083BF12BE89B7816089BF789410926100E2
S11300901092600008951F920F920FB60F921124D0
S11300A08F939F938091600090916100019690934B
S11300B06100809360009F918F910F900FBE0F900D
S11300C01F9018952DE7FC012E9FC0012F9F900DC6
S11300D0112401979C01992314F421503F4F232F9D
S11300E0220F220BFB0130832183907899231CF487
S11300F001979F6F0196FA019183808308951F925F
S11301000F920FB60F9211248F9388B38A3021F087
S113011088B38F5F88BB01C018BA8F910F900FBE50
S11301200F901F9018951F920F920FB60F921124E3
S11301308F9388B3882321F088B3815088BB02C091
S11301408AE088BB8F910F900FBE0F901F90189577
S1130150DF92EF92FF920F931F93CF93DF93CDB76C
S1130160DEB728970FB6F894DEBF0FBECDBF7894E4
S11301708FEF87BB90EC9BBF9CE095BF84BBA09A9C
S11301800E943E000F2EFAE0EF2EF12CF02DDD241C
S1130190D39408B310E0AE014B5F5F4FBE01695FBB
S11301A07F4FC8010E946200AE014F5F5F4FBE01E6
S11301B06D5F7F4FC701801B910B0E94620080918D
S11301C06000909161002F8138858217930780F039
S11301D085B3813069F422B730E08D819E81281780
S11301E0390734F015BA12BE109261001092600003
S11301F080916000909161002B813C81821793076C
S113020080F085B381110DC022B730E089819A81D5
S11302102817390734F0D5BA12BE10926100109233
S1130220600088B38B3008F4B4CF80E090E0289667
S11302300FB6F894DEBF0FBECDBFDF91CF911F91F3
S11102400F91FF90EF90DF900895F894FFCF98
S9030000FC
