S00C000070726F362E7372656391
S11300000C9434000C943E000C943E000C943E007E
S11300100C943E000C943E000C943E000C943E0064
S11300200C943E000C943E000C943E000C943E0054
S11300300C943E000C943E000C943E000C943E0044
S11300400C943E000C943E000C943E000C943E0034
S11300500C943E0069006B006D006F00710073002A
S11300607500770079007B0011241FBECFE5D8E02E
S1130070DEBFCDBF0E9440000C94B2000C9400007F
S1130080DF92EF92FF920F931F93CF93DF938FEF43
S113009087BB8CEF81BB80E090E016EFDEEFC0EE13
S11300A0BEEBA6EB76E662EF5AED40E63CEFD12CD0
S11300B0E12C0F2EF9E0FF2EF02D00E002C08F2D71
S11300C0902F8A309105C0F4FC01E65DFF4F0C943B
S11300D0AC0038BB11C048BB0FC058BB0DC068BBD7
S11300E00BC078BB09C0A8BB07C0B8BB05C0C8BB60
S11300F003C0D8BB01C018BB20B3213081F42FEF5B
S1130100E4E3FCE02150E040F040E1F700C00000EF
S11301108930910511F0019602C08D2D9E2D20B3DA
S1130120223061F42FEFE4E3FCE02150E040F040A2
S1130130E1F700C00000009711F201978A309105A1
S11301400CF4BFCF81E090E0DF91CF911F910F912C
S1130150FF90EF90DF900895EE0FFF1F0590F4914C
S10B0160E02D0994F894FFCF8F
S9030000FC
