S010000070726F395F365F322E7372656364
S11300000C942A000C943F000C943F000C943F0085
S11300100C943F000C943F000C943F000C943F0060
S11300200C943F000C943F000C943F000C943F0050
S11300300C943F000C943F000C943F000C943F0040
S11300400C943F000C943F000C943F000C943F0030
S11300500C943F0011241FBECFE5D8E0DEBFCDBF16
S113006010E0A0E6B0E0E8E9F9E002C005900D92E6
S1130070A636B107D9F70E94A6020C94CA040C94C0
S11300800000672B09F09FC0009711F4D8980895D9
S11300908130910511F4D99808958230910511F4B5
S11300A0DA9808958330910511F4DB98089584302B
S11300B0910511F4DC9808958530910511F4DD98CB
S11300C008958630910511F4DE98089587309105DE
S11300D011F4DF9808958A30910511F4C0980895B9
S11300E08B30910511F4C19808958C30910511F469
S11300F0C29808958D30910511F4C39808958E30F7
S1130100910511F4C49808958F30910511F4C598A0
S113011008958031910511F4C698089581319105AF
S113012011F4C79808958431910511F4A89808959D
S11301308531910511F4A99808958631910511F43A
S1130140AA9808958731910511F4AB9808958831E0
S1130150910511F4AC9808958931910511F4AD9885
S113016008958A31910511F4AE9808958B31910563
S113017011F4AF9808958E31910511F49098089573
S11301808F31910511F4919808958032910511F4FD
S1130190929808958132910511F4939808958232CA
S11301A0910511F4949808958332910511F495986A
S11301B008958432910511F496980895859709F06D
S11301C09FC097980895009711F4D89A08958130A4
S11301D0910511F4D99A08958230910511F4DA9AAF
S11301E008958330910511F4DB9A089584309105C4
S11301F011F4DC9A08958530910511F4DD9A08957F
S11302008630910511F4DE9A08958730910511F432
S1130210DF9A08958A30910511F4C09A08958B30BD
S1130220910511F4C19A08958C30910511F4C29A84
S113023008958D30910511F4C39A08958E30910577
S113024011F4C49A08958F30910511F4C59A089554
S11302508031910511F4C69A08958131910511F404
S1130260C79A08958431910511F4A89A08958531A7
S1130270910511F4A99A08958631910511F4AA9A69
S113028008958731910511F4AB9A08958831910549
S113029011F4AC9A08958931910511F4AD9A089539
S11302A08A31910511F4AE9A08958B31910511F4B8
S11302B0AF9A08958E31910511F4909A08958F3173
S11302C0910511F4919A08958032910511F4929A4E
S11302D008958132910511F4939A0895823291051B
S11302E011F4949A08958332910511F4959A08951E
S11302F08432910511F4969A0895859709F4979A92
S11303000895CF93C82F80FF07C061E070E08EE1AD
S113031090E00E94410006C060E070E08EE190E051
S11303200E944100C1FF07C061E070E08FE190E0EE
S11303300E94410006C060E070E08FE190E00E94FE
S11303404100C2FF07C061E070E080E290E00E94DB
S1130350410006C060E070E080E290E00E9441004D
S1130360C3FF07C061E070E081E290E00E944100B9
S113037006C060E070E081E290E00E944100C4FFAA
S113038007C061E070E082E290E00E94410006C094
S113039060E070E082E290E00E944100C5FF07C087
S11303A061E070E083E290E00E94410006C060E0FA
S11303B070E083E290E00E944100C6FF07C061E064
S11303C070E084E290E00E94410006C060E070E0CA
S11303D084E290E00E944100CC233CF461E070E0B0
S11303E085E290E00E94410006C060E070E085E292
S11303F090E00E944100CF910895CF93C82F60E010
S113040070E08AE190E00E9441008C2F0E948101FB
S113041061E070E08BE190E00E9441008FEC97E096
S11304200197F1F700C0000060E070E08BE190E01C
S11304300E9441008FEC97E00197F1F700C00000A3
S1130440CF91089581E00E94FD01089560E070E07D
S11304508AE190E00E94410060E070E08BE190E06E
S11304600E9441008FE39CE90197F1F700C000006E
S113047080E30E94FD018FE097E20197F1F700C04D
S1130480000080E30E94FD018FEC97E00197F1F7F3
S113049000C0000080E30E94FD018FE19EE401970B
S11304A0F1F700C0000088E30E94FD018CE00E9487
S11304B0FD0181E00E94FD0186E00E94FD01089596
S11304C0CF93C82F61E070E08AE190E00E94410080
S11304D08C2F0E94810161E070E08BE190E00E942A
S11304E041008FEC97E00197F1F700C0000060E055
S11304F070E08BE190E00E9441008FEC97E001975F
S1130500F1F700C00000CF910895CF93DF93EC0181
S11305108881882331F021960E946002899181119B
S1130520FBCFDF91CF91089582E487B987E886B93C
S1130530089597B1917E97B997B18770982B97B921
S1130540369A349BFECF84B195B10895CF93DF934F
S113055000D000D0CDB7DEB78FEF87BB81BB84BBA3
S11305600E9426020E94940281E00E94990282E085
S11305700E949902BC0180E090E00E949A0320E06E
S113058030E040EA50E40E94280420E030EC4FE7D9
S113059054E40E94F20220E030E048EC52E40E946D
S11305A028040E946403DC01CB014AE0BE016F5FB2
S11305B07F4F0E9495040E94220280E80E94FD0160
S11305C080E690E00E948502CE0101960E94850299
S11305D02FEF89E698E1215080409040E1F700C078
S11305E00000C2CF0E9406030C94EE030E94E703AE
S11305F058F00E94E00340F029F45F3F29F00C9486
S1130600D70351110C9422040C94DD030E94FF03C0
S113061068F39923B1F3552391F3951B550BBB272D
S1130620AA2762177307840738F09F5F5F4F220F72
S1130630331F441FAA1FA9F335D00E2E3AF0E0E869
S113064032D091505040E695001CCAF72BD0FE2FB3
S113065029D0660F771F881FBB1F26173707480747
S1130660AB07B0E809F0BB0B802DBF01FF279358FF
S11306705F4F3AF09E3F510578F00C94D7030C94E9
S113068022045F3FE4F3983ED4F38695779567950B
S1130690B795F7959F5FC9F7880F911D9695879534
S11306A097F90895E1E0660F771F881FBB1F621753
S11306B073078407BA0720F0621B730B840BBA0B11
S11306C0EE1F88F7E09508950E946B036894B111BA
S11306D00C94220408950E94070488F09F5798F010
S11306E0B92F9927B751B0F0E1F0660F771F881F33
S11306F0991F1AF0BA95C9F714C0B13091F00E944D
S11307002104B1E008950C942104672F782F8827E1
S1130710B85F39F0B93FCCF3869577956795B39573
S1130720D9F73EF490958095709561957F4F8F4FE2
S11307309F4F0895E89409C097FB3EF490958095E7
S1130740709561957F4F8F4F9F4F9923A9F0F92F93
S113075096E9BB279395F695879577956795B79511
S1130760F111F8CFFAF4BB0F11F460FF1BC06F5FF7
S11307707F4F8F4F9F4F16C0882311F096E911C009
S1130780772321F09EE8872F762F05C0662371F02A
S113079096E8862F70E060E02AF09A95660F771F3E
S11307A0881FDAF7880F9695879597F9089597F932
S11307B09F6780E870E060E008959FEF80EC089503
S11307C000240A941616170618060906089500242C
S11307D00A9412161306140605060895092E0394A6
S11307E0000C11F4882352F0BB0F40F4BF2B11F41A
S11307F060FF04C06F5F7F4F8F4F9F4F089557FD79
S11308009058440F551F59F05F3F71F04795880F7A
S113081097FB991F61F09F3F79F087950895121611
S113082013061406551FF2CF4695F1DF08C01616BD
S113083017061806991FF1CF86957105610508946E
S11308400895E894BB2766277727CB0197F9089585
S11308500E943B040C94EE030E94E00338F00E94D3
S1130860E70320F0952311F00C94D7030C94DD03D7
S113087011240C9422040E94FF0370F3959FC1F38A
S1130880950F50E0551F629FF001729FBB27F00D3A
S1130890B11D639FAA27F00DB11DAA1F649F66278F
S11308A0B00DA11D661F829F2227B00DA11D621FDE
S11308B0739FB00DA11D621F839FA00D611D221F98
S11308C0749F3327A00D611D231F849F600D211D7C
S11308D0822F762F6A2F11249F5750409AF0F1F0FF
S11308E088234AF0EE0FFF1FBB1F661F771F881F68
S11308F091505040A9F79E3F510580F00C94D703C6
S11309000C9422045F3FE4F3983ED4F386957795E4
S11309106795B795F795E7959F5FC1F7FE2B880F0D
S1130920911D9695879597F90895BB274A3031F420
S1130930992322F4BDE2909581959F4F0C94A104D4
S1130940BB27FB015527AA27880F991FAA1FA417A5
S113095010F0A41B83955051B9F7A05DAA3308F099
S1130960A95DA193009779F7B111B1931192CB01CD
S11309700C94BA04DC01FC01672F71917723E1F731
S1130980329704C07C916D9370836291AE17BF0758
S10B0990C8F30895F894FFCFA9
S109099856203D20000082
S9030000FC
