S00D000070726F31302E7372656365
S11300000C942A000C9434000C9434000C943400A6
S11300100C9434000C9434000C9434000C9434008C
S11300200C9434000C9434000C9434000C9434007C
S11300300C9434000C9434000C9434000C9434006C
S11300400C9434000C9434000C9434000C9434005C
S11300500C94340011241FBECFE5D8E0DEBFCDBF21
S11300600E9447000C944E000C94000086E880BD6A
S11300701BB883E389B910BC88E18AB908955D9BF4
S1130080FECF8CB908955F9BFECF8CB108950E947A
S113009036000E9443000E943F00FBCFF894FFCF3C
S9030000FC
