:100000000C942A000C9434000C9436000C943400A8
:100010000C9434000C9434000C9434000C94340090
:100020000C9434000C9434000C9434000C94340080
:100030000C9434000C9434000C9434000C94340070
:100040000C9434000C9434000C9434000C94340060
:100050000C94340011241FBECFE5D8E0DEBFCDBF25
:100060000E9445000C9450000C9400001F920F92C7
:100070000FB60F9211248F9388B3809588BB8F9110
:100080000F900FBE0F901F90189580E88BBF84E0F3
:1000900085BF78948FEF87BB14BA85E588BBFFCF07
:0400A000F894FFCF02
:00000001FF
