:100000000C942A000C9434000C9434000C943400AA
:100010000C9434000C9434000C9434000C94340090
:100020000C9434000C9434000C9434000C94340080
:100030000C9434000C943F000C9434000C94340065
:100040000C9434000C9434000C9434000C94340060
:100050000C94340011241FBECFE5D8E0DEBFCDBF25
:100060000E944D000C9468000C9400001BB888E9B5
:100070008AB986E880BD83E389B910BC08951F92D0
:100080000F920FB60F9211248F938CB188BB8F9172
:100090000F900FBE0F901F9018950E943600789415
:1000A0008FEF87BB84BBA89A2FEF83ED90E321509D
:1000B00080409040E1F700C00000A8982FEF83ED4A
:1000C00090E3215080409040E1F700C00000EBCF6A
:0400D000F894FFCFD2
:00000001FF
